:020000040800F2
:2000000000100020590A00083D0A00083F0A000800000000000000000000000000000000A5
:20002000000000000000000000000000410A00080000000000000000430A0008450A0008C1
:20004000A90A000800000000A90A0008A90A0008A90A0008A90A0008A90A0008A90A000883
:2000600000000000A90A0008A90A0008A90A0008A90A0008A90A0008A90A0008000000001E
:20008000A90A00080000000000000000A90A000800000000A90A0008A90A000871020008F9
:2000A00000000000A90A000800000000A90A000800000000000000000000000000000000CA
:2000C00010B5064C2378002B07D1054B002B02D0044800E000BF0123237010BD040000208B
:2000E00000000000B40D0008044B10B5002B03D00349044800E000BF10BDC046000000001B
:2001000008000020B40D0008002243088B4274D303098B425FD3030A8B4244D3030B8B4296
:2001200028D3030C8B420DD3FF22090212BA030C8B4202D31212090265D0030B8B4219D334
:2001400000E0090AC30B8B4201D3CB03C01A5241830B8B4201D38B03C01A5241430B8B42BD
:2001600001D34B03C01A5241030B8B4201D30B03C01A5241C30A8B4201D3CB02C01A52411E
:20018000830A8B4201D38B02C01A5241430A8B4201D34B02C01A5241030A8B4201D30B02D4
:2001A000C01A5241CDD2C3098B4201D3CB01C01A524183098B4201D38B01C01A524143091B
:2001C0008B4201D34B01C01A524103098B4201D30B01C01A5241C3088B4201D3CB00C01A8E
:2001E000524183088B4201D38B00C01A524143088B4201D34B00C01A5241411A00D2014630
:20020000524110467047FFE701B5002000F006F802BDC0460029F7D076E770477047C0460E
:2002200010B5094A9368012423439360002907D00300411810001A78027001338B42FAD1F1
:20024000014B1868C04310BD0030024010B5054B1C6805490548FFF7E3FF201A434258412C
:20026000C0B210BDFC3B0008FC2B00000010000810B5344B9B691A073ED5324AD169082067
:200280000143D1619269D2032ED52E490A68063802430A602C4A032111702A490A682020FF
:2002A00002430A609B0648D5264AD36920210B43D361254B1B78DAB2032B30D0042A3FD167
:2002C000224B00221A80204B01321A701D4B1A688A431A605968802212020A435A601A689C
:2002E00008210A431A602BE01648026804210A430260154A1170D0E79A07D3D45A07D1D581
:20030000104A516A1148028894B2013292B20280CAB20F490A550C4A04211170C2E7094B7A
:20032000D969982252000A43DA611A6808210A431A60054B00221A7002E0064B01221A8089
:2003400010BDC046005400403600002040040020380000203400002010B5134C200000F09C
:200360000FFC6368114A134063602368012293432360236807329343236000220C4B1A601F
:200380000C4B18680321014019609A60DA601A615A6199690132FF320A439A6100F054FC50
:2003A00000F042FC10BDC04600540040FFFFFFFD10E000E00000014010B5FFF747FF002874
:2003C00007D00C4B1B680C4A134080229205934200D010BDFFF7C0FF084B1A68084B1A60C1
:2003E0001A68084B1A60034A126882F308881B689847EEE7001000080000FE2F041000084A
:20040000300000202C000020F8B5CE46474680B5314A53789078D17814791B06000403432E
:200420001C4309020C432D4B9C4212D9130052799B7912029B189BB2002B0ED10023264821
:2004400000218122D200C15401339342FBD100F03BFAC0BCB946B046F8BD00F025FA34206E
:2004600000F03AFA200000F07BFA0428FAD18023DB00E3189C42E1D2221D93429B415B4245
:200480005A4253415B42FF22134001339846082608235B429946A1440F4F4B469D19BC5D91
:2004A000731CFB5CB21CB95CF21CBA5C1B0209040B431C43120614432100280000F07CFA5A
:2004C0000428F9D101235B429C46E04404364346002BE2D1B2E7C04638000020FF0F0008B1
:2004E00070B5214E214D224C02E02378012B06D033682A689A42F8D2FFF75EFFF5E71D4AA4
:200500007F3380210904D150BFF34F8FBFF36F8F174B00221A70184B1B78DBB2174A1370A5
:200520001378DAB2062B04D0772A0BD1FFF744FF08E00D4B1B68124A944663440B4A136081
:20054000FFF762FF0B4B802212041A600D4B1A6808210A431A601A68012002431A601A680E
:200560000A431A60C4E7C04620000020240000203600002000E100E03800002028000020C8
:2005800060EA00000054004010B5294A136801210B431360110001220B681A42FCD0254AA9
:2005A000136801210B431360110002220B681A42FCD0204B1A68F8218A4378390A431A60C2
:2005C00059681D4A1140A02292030A435A60DA6A0F218A43DA621968802252040A431A6087
:2005E0001900802292040B681342FCD0114B5A68F0218A435A605A6810490A405A605A687F
:2006000003218A4301390A435A6019000C224B681340082BFBD10A4C200000F071FB20006A
:2006200000F096FB034A136B10218B43136310BD0020024000100240FFFFC2FFFFF8FFFFC4
:20064000006CDC02F0B5CE46474680B595B0854B996901221143996199690A400192019AD3
:20066000DA69802149050A43DA61DB690B400093009B7D490B6A1B021B0AC0221206134336
:200680000B62FFF781FF794B1868FA218900FFF73BFD0138764B8022520412E0BFF34F8FED
:2006A000714B744ADA60BFF34F8FC046FDE7724B1B68F533FF33714A13605BE0013B002BA2
:2006C000ECD09042FAD26E4A50606748036A1B021B0AC02109060B43036200269660072311
:2006E0001360604C63698025AD022B43636163692B400493049B626940231A436261626903
:2007000013400393039B5F4B9A6860218A4340390A439A609A6860310A439A600122524207
:200720001A61193200210DA800F018FB63692B43636163692B400293029B8025AD000D95BF
:20074000012711979024E4050DA9200000F0ADF98023DB000D930E9611970DA9200000F090
:20076000A4F91E2000F0DCFA23692B4202D123695B059CD51C2200210DA800F0EFFA182288
:20078000002107A800F0EAFA364C63698022920213436361636913400593059B80239B0082
:2007A0000793FF3BFF3B9946089301339846099301250A950B9504270C979026F60507A96F
:2007C000300000F072F98023DB0007934B460893434609930A950B950C9707A9300000F073
:2007E00064F9E369802292031343E361E36913400693069B244AC521890053581B021B0ADC
:20080000535080231B041360204CE368204A1340E36023681F4A1340236023681E4A134039
:20082000236000230D931D4A0E920F931093A8221192129313930DA9200000F0B9F962682C
:2008400080239B0413436360E368154A1340E36023682B4323602368082213432360FFF7FD
:200860003FFEC0460010024000ED00E000000020E12E00000400FA05200000202400002060
:2008800010E000E00030024000E100E000540040FF7FFFFFFFFFF7FFFFFFFDFF0A0210003B
:2008A00001F8FFFF70470000044B1B691B0604D5024B034A5A60034A5A6070470020024049
:2008C00023016745AB89EFCD024A136980210B43136170470020024010B5040034230200F2
:2008E0009A4301D1002803D103480449FFF7DAFF034BDC6010BDC046CC0D00088A0400001A
:2009000000200240094BDB680120DB070AD4074BDB68DB0607D4054BDB6803301840434209
:200920005841033070470220FCE7C0460020024010B50400FFF7E6FF01280AD1002C0BD018
:20094000FFF7E0FF013C012803D1002CF8D1043001E0002C02D010BD0520FCE70520FAE7A5
:2009600070B50400F8231B06C21880235B029A4206D2B0200003FFF7DBFF042806D070BDB2
:2009800083210B484900FFF78DFFF2E7094D2B69022633432B616C612B69402213432B6103
:2009A000AC300003FFF7C4FF2B69B3432B61E6E7CC0D00080020024030B583B005000C0050
:2009C00000230193F8231B06C21880235B029A4207D2B0200003FFF7ABFF042807D003B06C
:2009E00030BDA72113484900FFF75CFFF1E7124A136901210B431361A3B22B80AC300003DA
:200A0000FFF796FF042805D00B4A136901218B431361E4E702350195019B240C1C80AC3039
:200A20000003FFF785FF044A136901218B431361D5E7C046CC0D000800200240FEE7FEE73C
:200A400070477047024A1368013313607047C04620000020704700000D488546FFF7FAFFF7
:200A60000C480D490D4A002302E0D458C4500433C4188C42F9D30A4A0A4C002301E0136062
:200A80000432A242FBD300F071F9FFF7DBFDFEE7001000200000002004000020F40D0008E4
:200AA0000400002044040020FEE7F0B5D6464F464646C0B50B68002B5BD000220124A14677
:200AC00020E0C3689846270067437B009C46BC446346DE430B697B439A46454663469D43EF
:200AE0002B0055461D43C5604B68022B26D004684B687B4334402343036001320B681C00F9
:200B0000D44036D04E4696401C0034403342F4D04B68013B012BD4D88368270067437E0087
:200B2000F619B3438E687E43334383600F684368BB43CE687E4333434360C2E7FF2C0CD8B8
:200B4000036A3C007C43A44624016546641BA3434C696C4323430362C9E7436A240A6443AD
:200B6000644325012D1BAB434D696C4323434362BDE70020E0BCBA46B146A846F0BD000010
:200B8000084A0123904201D018007047064B1969802292030A431A611A6904490A401A6106
:200BA0000023F1E70054004000100240FFFFDFFF30B503680124A34303600268CB681B0200
:200BC0008D682B43154D2A40134303604B6803610368234303608368114A1340836082687C
:200BE0000B698C692343D20AD202134383600B69002B04D0826880231B021343836003687C
:200C0000084A13400A68134303604368044A13404A6913434360002030BDC046FFE0FFFF1C
:200C2000FF7FFFFFFFFFCFFF054B1969802252050A431A611A6903490A401A61002070476E
:200C400000100240FFFFFFEF82B0294A136801210B431360110002220B681A42FCD0244A15
:200C60001368F8218B4378390B43136001235B420193019B1F490B400193019B5360110008
:200C80000C224B681A42FCD1194A13680193019B19490B400193019B1360110080229204A3
:200CA0000B681342FCD1124B1A6814490A401A60002159605A6BF8208243783802435A6371
:200CC0005A6B7F3882435A635A6B033082435A63D9621963BF2212040192019A9A609960CD
:200CE000596A802252040A435A62002002B07047001002400CF8FFF0FFFFF6FEFFFFFBFF78
:200D000010B5FA218900FFF7FFF90138034B586000229A6005321A6010BDC04610E000E0CD
:200D200082B00A4B1B680193019B431C5A1E9341C018064980225202002804D00B681342ED
:200D4000FAD00138F8E702B07047C04610E000E0014B18607047C046000000200300821834
:200D6000934200D1704719700133F9E770B500260C4C0D4D641BA410A64209D1002600F071
:200D800019F80A4C0A4D641BA410A64205D170BDB300EB5898470136EEE7B300EB589847C1
:200DA0000136F2E7EC0D0008EC0D0008F00D0008EC0D0008F8B5C046F8BC08BC9E46704755
:200DC000F8B5C046F8BC08BC9E4670472E2E2F436F72652F5372632F73746D3332663078EC
:200DE000785F666C6173682E63000000E9000008C100000800127A00FFFFFFFFFFFFFFFF3F
:200E0000FFFFFFFFFFFFFFFFFFFFFFFFFFFFFFFFFFFFFFFFFFFFFFFFFFFFFFFFFFFFFFFFF2
:200E2000FFFFFFFFFFFFFFFFFFFFFFFFFFFFFFFFFFFFFFFFFFFFFFFFFFFFFFFFFFFFFFFFD2
:200E4000FFFFFFFFFFFFFFFFFFFFFFFFFFFFFFFFFFFFFFFFFFFFFFFFFFFFFFFFFFFFFFFFB2
:200E6000FFFFFFFFFFFFFFFFFFFFFFFFFFFFFFFFFFFFFFFFFFFFFFFFFFFFFFFFFFFFFFFF92
:200E8000FFFFFFFFFFFFFFFFFFFFFFFFFFFFFFFFFFFFFFFFFFFFFFFFFFFFFFFFFFFFFFFF72
:200EA000FFFFFFFFFFFFFFFFFFFFFFFFFFFFFFFFFFFFFFFFFFFFFFFFFFFFFFFFFFFFFFFF52
:200EC000FFFFFFFFFFFFFFFFFFFFFFFFFFFFFFFFFFFFFFFFFFFFFFFFFFFFFFFFFFFFFFFF32
:200EE000FFFFFFFFFFFFFFFFFFFFFFFFFFFFFFFFFFFFFFFFFFFFFFFFFFFFFFFFFFFFFFFF12
:200F0000FFFFFFFFFFFFFFFFFFFFFFFFFFFFFFFFFFFFFFFFFFFFFFFFFFFFFFFFFFFFFFFFF1
:200F2000FFFFFFFFFFFFFFFFFFFFFFFFFFFFFFFFFFFFFFFFFFFFFFFFFFFFFFFFFFFFFFFFD1
:200F4000FFFFFFFFFFFFFFFFFFFFFFFFFFFFFFFFFFFFFFFFFFFFFFFFFFFFFFFFFFFFFFFFB1
:200F6000FFFFFFFFFFFFFFFFFFFFFFFFFFFFFFFFFFFFFFFFFFFFFFFFFFFFFFFFFFFFFFFF91
:200F8000FFFFFFFFFFFFFFFFFFFFFFFFFFFFFFFFFFFFFFFFFFFFFFFFFFFFFFFFFFFFFFFF71
:200FA000FFFFFFFFFFFFFFFFFFFFFFFFFFFFFFFFFFFFFFFFFFFFFFFFFFFFFFFFFFFFFFFF51
:200FC000FFFFFFFFFFFFFFFFFFFFFFFFFFFFFFFFFFFFFFFFFFFFFFFFFFFFFFFFFFFFFFFF31
:200FE000FFFFFFFFFFFFFFFFFFFFFFFFFFFFFFFFFFFFFFFFFFFFFFFFFFFFFFFFFFFFFF010F
:2010000000100020C1140008AD140008AF140008000000000000000000000000000000002F
:20102000000000000000000000000000B11400080000000000000000B3140008B514000843
:2010400011150008000000001115000811150008111500081115000811150008111500084E
:2010600000000000111500081115000811150008111500081115000811150008000000005C
:2010800011150008000000000000000011150008000000001115000811150008C1170008B8
:2010A0000000000011150008000000001115000800000000000000000000000000000000D4
:2010C00010B5064C2378002B07D1054B002B02D0044800E000BF0123237010BDD0000020AF
:2010E0000000000038290008044B10B5002B03D00349044800E000BF10BDC046000000006B
:20110000D400002038290008002243088B4274D303098B425FD3030A8B4244D3030B8B421A
:2011200028D3030C8B420DD3FF22090212BA030C8B4202D31212090265D0030B8B4219D324
:2011400000E0090AC30B8B4201D3CB03C01A5241830B8B4201D38B03C01A5241430B8B42AD
:2011600001D34B03C01A5241030B8B4201D30B03C01A5241C30A8B4201D3CB02C01A52410E
:20118000830A8B4201D38B02C01A5241430A8B4201D34B02C01A5241030A8B4201D30B02C4
:2011A000C01A5241CDD2C3098B4201D3CB01C01A524183098B4201D38B01C01A524143090B
:2011C0008B4201D34B01C01A524103098B4201D30B01C01A5241C3088B4201D3CB00C01A7E
:2011E000524183088B4201D38B00C01A524143088B4201D34B00C01A5241411A00D2014620
:20120000524110467047FFE701B5002000F006F802BDC0460029F7D076E770477047C046FE
:20122000F0B5C64600B588B01822002102A801F04DFB324B5A69802189020A435A615A699B
:201240000A400192019A5A698021C9020A435A615B690B400093009B294B984602279F6127
:201260000125029506959026F60502A9300001F06FFA029700240394069502A9300001F075
:2012800067FA042302930394069502A9300001F05FFA082302930394069502A9300001F01C
:2012A00057FA102302930394069502A9300001F04FFA202302930394069502A9300001F0F8
:2012C00047FA402302930394069502A9300001F03FFA802302930394069502A9300001F068
:2012E00037FA0297039504940594069402A9404601F02EFA08B080BCB846F0BD0010024086
:2013000000040048084B094A1A60094A1A6004225A60084A9A6019000722CB681A42FCD1CA
:20132000014B054A1A60704700300040CCCC000055550000FF0F0000AAAA000082B08023F8
:201340009B050E480E4A99181A000433096811608342F7D10B4A9169012319439161926912
:2013600013400193019B084B1A6803218A431A601A680A431A6002B07047C046C000002012
:20138000001000E8001002400000014010B500F0F9F80300083BDBB26F2B02D8044B1870FE
:2013A00010BD034B08221A70082000F0B3F8F7E7BD05002000B595B02C22002109A801F0D0
:2013C00085FA1022002104A801F080FA10220021684601F07BFA0A230893093B0B931022E1
:2013E0000C920F930133109380231B03129308A800F0E6FD002817D107230493053B059344
:20140000002306930793002104A801F06BF800280CD12023009300230393684601F0FEF82C
:20142000002805D115B000BD72B6FEE772B6FEE772B6FEE770B5FFF781FFFFF7A7FF00F0DE
:20144000D7FBFFF7B7FFFFF7EBFEFFF75BFF084B02229A6100F078FA00F09AF800F02CF974
:20146000044D054C00F0F4FA00F054FB2C60F9E70004004800300040AAAA000082B00A4BAA
:20148000996901221143996199690A400092009ADA69802149050A43DA61DB690B40019384
:2014A000019B02B07047C04600100240FEE7FEE77047704710B500F0ABFB10BD70470000B8
:2014C0000D488546FFF7FAFF0C480D490D4A002302E0D458C4500433C4188C42F9D30A4AB6
:2014E0000A4C002301E013600432A242FBD301F0F5F9FFF79FFFFEE700100020C0000020CF
:20150000CC00002088290008D0000020F0050020FEE70000F0B585B00500194A16685768BD
:2015200072B600230193029201220392009300F013FC694601A800F0E3FC040000F020FCB7
:20154000002C03D062B6002005B0F0BD00F004FCFF2332009A432A433B000949032000F0C4
:2015600047FC040000F00CFC62B60020002CEBD1034B1B78ED1A6B425D41E8B2E4E7C0466E
:20158000003C0008014B1878C0B27047003C0008F0B5CE46474680B591B01C22002109A8F2
:2015A00001F094F91822002103A801F08FF9384C63698022920213436361636913400293DA
:2015C000029B80239B000393FF3BFF3B9946049301339846059301250695079504270897DF
:2015E0009026F60503A9300001F0B2F88023DB0003934B4604934346059306950795089790
:2016000003A9300001F0A4F8E369802292031343E361E36913400193019B1E4AC52189009E
:2016200053581B021B0A535080231B0413601A4CE3681A4A1340E3602368194A1340236076
:201640002368184A1340236000230993164A0A920B930C93154D2A7852000D920E930F9397
:2016600009A9200001F0F6F8626880239B0413436360E3680E4A1340E3602B785B00DBB2D0
:201680000C4A137011B0C0BCB946B046F0BDC0460010024000E100E000540040FF7FFFFF69
:2016A000FFFFF7FFFFFFFDFF0A021000BD05002001F8FFFFFC0000200A4B1A6801210A43E5
:2016C0001A601A6807310A431A601A6808310A431A601A6870310A431A601A6860390A433B
:2016E0001A60704700540040084B1A6808218A431A601A6808318A431A601A6870318A43EE
:201700001A601A6860398A431A6070470054004010B50C0096239B00994202D8002902D1CC
:201720000EE09624A40000280AD0064B22000100180001F0F7F8044B00221A80034B1C80FA
:2017400010BDC04600010020FA000020F8000020094B5A6A094B1B889BB2962189008B42FA
:2017600008D206490B8898B201339BB20B80D2B2034B1A547047C04600540040FE000020A8
:20178000580300200A4A13889BB20A49CB5CDBB209498B62138801339BB213801388074AB1
:2017A00012889BB2934202D3014B00221A807047FA0000200001002000540040F8000020F2
:2017C00070B5574B1A6801321A601A68554B9A4214D8554B9B691B0728D5534B9B69534A27
:2017E0001178C9B25B0C5B00FF221340994249D04D4AD36908210B43D36170BD4A4C20005A
:2018000001F010F863684A4A1340636023680122934323602368073293432360FFF7B8FE8A
:20182000FFF74AFF3E4B00221A60D2E73E4B9B69DB0668D43C4B9B699B076AD43A4B9B69ED
:201840005B0769D4384B9B699B06D6D5364BDA6920210A43DA619B69DB0702D4324B01222D
:201860009A61FFF741FF334D298889B2324800F07BF800242C80FFF71FFF304B1C60304B98
:201880001C60BAE72B4B1B889BB2002B10D12B4B01221A60244B9B69DB0316D4224BDA69BB
:2018A00008210A43DA611A6804390A431A60A4E7FFF71AFF1F4C218889B21F4800F054F865
:2018C00000232380FFF7F8FEE1E7174B9B69DB0313D51C4B1B78002B0CD01A4B00221A7050
:2018E000114BDA6908210A43DA611A6806390A431A6082E700F0FCF8EFE70B4AD369082133
:201900000B43D36179E7084AD36910210B43D36173E7FFF737FF70E7FFF71AFF6DE7C0465E
:20192000F4000020E02E000000540040FC000020FFFFFFFDFE00002058030020F000002032
:20194000EC000020BC05002070B500F085F9050000F088F9040000F08BF9024B1D605C6093
:20196000986070BDB005002010B590B00400334B00221A7001291DD027D90378FD2B4FD061
:20198000FF2B22D1022920D140780300083B6F2B1BD82B4B1B78DBB2984216D0FFF7BAFD80
:2019A000002812D06278264B1A70FFF7F1FDFFF783FE0AE0037818002030C0B20B2806D99C
:2019C000D02B0FD02378FD2B17D810B010BD0C21091A89B21B4BC018FFF79AFE174B012212
:2019E0001A70EFE7CD3B6A46137001216846FFF78FFE124B01221A70E4E7042269460A70D5
:201A00000F4A12784A7080214900C91A89B2FE3B6B441800FFF77CFE084B01221A70D4E7F6
:201A20000229D2D14378002BCFD0BFF34F8F064B064ADA60BFF34F8FC046FDE7BC0500208D
:201A4000BD050020B005002000ED00E00400FA0510B500F0E9F81E4B00221A601D4B1B6879
:201A6000002B0AD01C4B1B68C31A092B05D91B4A136801331360184B1860184B1B68322BE3
:201A800000D810BD164C200000F0CCFE6368154A134063602368012293432360236807325A
:201AA00093432360104A00231380104A00211170084A1360094A1360074A1360FFF768FD17
:201AC000FFF7FAFDFA20400000F0B4F8D9E7C046F4000020F0000020C0050020EC00002048
:201AE00000540040FFFFFFFDFE000020BC05002010B505480121FFF70BFE044B00221A702B
:201B0000034B02329A6110BDC5000020C80500200004004870B59023DB051D691C691E6913
:201B2000186919691A69630020241C407608102333401C433E239D432C434000363B0340F5
:201B40001C43490004230B401C439208022313401C43E4B200F068F80D4B1B78A34204D011
:201B60000B4B1C700B4B186070BD0A4A1268801A1328F9D9084A1278D2B29342F4D0064ACA
:201B80001370064B01221A70054B01329A62EBE7C4000020C4050020C5000020C8050020D4
:201BA0000004004870B504000E4D0F4B1978FA208000FFF7A9FA01002868FFF7A5FA00F021
:201BC0008FF800280BD10130032C09D800222100404200F053F8054B1C60002000E001204C
:201BE00070BDC046C0000020C6000020C800002010B5064A136810210B4313600320FFF769
:201C0000D1FFFFF73BFC002010BDC04600200240034A1168034B1B785B1813607047C04628
:201C2000CC050020C6000020014B18687047C046CC05002070B50400FFF7F6FF0500631CBB
:201C400002D0044B1B78E418FFF7EEFF401BA042FAD370BDC6000020014B18687047C0464B
:201C6000ACF7FF1F014B18687047C046B0F7FF1F014B18687047C046B4F7FF1F70B50028B6
:201C800014DB8408A400144B9C466444C026B600A55903220240D200FF2318009040854397
:201CA00089010B4093402B43A35170BD0F230340083B9B089B00094A94466344DC690322B9
:201CC0001040C000FC3215008540AC4389010A4082402243DA61E8E700E100E000ED00E06A
:201CE000013880235B0498420FD2094A50600948036A1B021B0AC02109060B430362002325
:201D0000936007331360002070470120FCE7C04610E000E000ED00E00D4BDA6810210B00CF
:201D20001340114205D00B4AD3690E390B43D3611023074AD268520706D50649CA69012039
:201D40000243CA6104221343014AD3607047C04600200240D0050020064B1B6900201B06EF
:201D600007D5044B044A5A60044A5A6018690006C00F70470020024023016745AB89EFCDF9
:201D8000034A136980210B43136100207047C04600200240F8B50400FFF746FF0700134E84
:201DA0000125F3681D420AD0631CFAD0002C1BD0FFF73AFFC01BA042F3D903200FE00B4BE9
:201DC000DB689B0602D5094B2022DA60074BDB68DB0605D4054BDB6800205B0700D4F8BD8B
:201DE000FFF79AFF0120FAE70320F8E700200240F0B5DE4657464E464546E0B583B004009D
:201E00000E0001929946294B1B7E012B4BD0274B01221A762648FFF7BDFF002839D1012C4A
:201E20000ED0023C631E9C416300984602239C46E04400251D4B9B4600239A461D4C21E0E1
:201E400001239846F5E72022D21A494691400A000199D9400B0013439BB25A465146D16142
:201E6000226901273A43226133801148FFF792FF2369BB43236100280BD101350236EBB2FF
:201E8000984506D92B011A00203ADCD44B46D340E2E7064B00221A7603B0F0BCBB46B2466E
:201EA000A946A046F0BD0220F6E7C046D005002050C3000000200240064B0022DA61064B32
:201EC0001A6904210A431A611A693C310A431A617047C046D005002000200240064B002253
:201EE000DA61064B1A6902210A431A6158611A693E310A431A617047D00500200020024067
:201F0000F8B5CE46474680B505008846294B1B7E012B4DD0274B01221A760368012B29D060
:201F20002548FFF737FF03000120002B29D1013B424613606C68AB689B021B199C4235D2EB
:201F40001D4B99461D4E02272000FFF7C7FF4846FFF720FF3369BB433361002823D180233A
:201F6000DB009C466444AB689B026A689B18A342EAD806E01048FFF70DFF03000120002B91
:201F800006D00C4B00221A76C0BCB946B046F8BDFFF792FF0848FFF7FDFE084A1369042181
:201FA0008B431361EDE743461C60EAE70120E8E70220E9E7D005002050C3000000200240E9
:201FC000F0B5CE46474680B583B0041E00D14CE20368DB0726D5B74B5A680C231340042B75
:201FE00018D0B44B5A680C231340082B0ED06368012B3DD0002B54D1AE4B1A68AE490A4095
:202000001A601A68AD490A401A6037E0A94B5B68DB03ECD5A74B1B689B0303D56368002BBC
:2020200000D128E223689B0778D5A24B5B680C221A4262D09F4B5A680C231340082B58D056
:20204000E368002B00D18CE09A4A136801210B431360FFF7E9FD0500964F02263B681E429A
:2020600076D1FFF7E1FD401B0228F7D90320FDE1904A116880235B020B4313606368002BE5
:2020800027D0FFF7D1FD05008A4F8026B6023B683342C7D1FFF7C8FD401B6428F7D9032004
:2020A000E4E1052B09D0834B1A6883490A401A601A6882490A401A60E0E77E4B19688022AE
:2020C000D2020A431A601968802252020A431A60D4E7FFF7A9FD0500764F8026B6023B6805
:2020E00033429FD0FFF7A0FD401B6428F7D90320BCE1704B5B68DB03A2D46E4B1B689B0742
:2021000004D5E3680120012B00D0AFE169490A682369DB00F820824313430B6023681B0718
:2021200047D5E369002B30D0624A536A01210B435362FFF779FD05005E4F02267B6A1E42F3
:2021400037D1FFF771FD401B0228F7D903208DE158490A682369DB00F820824313430B6015
:20216000DCE7544A136801218B431360FFF75CFD0500504F02263B681E42CFD0FFF754FD1C
:20218000401B0228F7D9032070E14A4A536A01218B435362FFF748FD0500464F02267B6A9E
:2021A0001E4206D0FFF740FD401B0228F7D903205CE123685B0700D489E03E4BDB690022E8
:2021C0009146DB000BD43B4BDA69802149050A43DA61DB690B400193019B01239946384BE9
:2021E0001B68DB050ED5A368012B21D0002B39D1304B1A6A01218A431A621A6A03318A434D
:202200001A621AE02E4A116880235B000B431360FFF70AFD06002A4D80277F002B683B42E8
:20222000E1D1FFF701FD801B6428F7D903201DE1204A136A01210B431362A368002B27D0E7
:20224000FFF7F2FC06001B4B984602271D4D43461B6A1F4238D1FFF7E7FC801BA842F6D918
:20226000032003E1052B09D0124B1A6A01218A431A621A6A03318A431A62DEE70D4B1A6A60
:2022800004210A431A621A6A03390A431A62D4E7FFF7CAFC0600074B98460227094D434612
:2022A0001B6A1F4210D0FFF7BFFC801BA842F6D90320DBE000100240FFFFFEFFFFFFFBFF30
:2022C00000700040881300004B46012B37D02368DB0610D56369012B37D0053356D1684A8E
:2022E000536B04218B435363516BA369DB00F82081430B435363236A0020002B00D1B5E0B6
:202300005F4A51680C220A40082A00D193E0022B54D05B4A13685B490B401360FFF784FC24
:202320000400574E8025AD0433682B4200D180E0FFF77AFC001B0228F6D9032096E0504AB2
:20234000D36951490B40D361C1E74D4B5A6B04210A435A635A6B03390A435A63FFF764FC93
:202360000500474F02267B6B1E4206D1FFF75CFC401B0228F7D9032078E041494A6BA36914
:20238000DB00F820824313434B63B4E73C4B5A6B04210A435A635A6B03398A435A63FFF7EA
:2023A00043FC0500364F02267B6B1E42A3D0FFF73BFC401B0228F7D9032057E0304A1368A2
:2023C00030490B401360FFF72FFC05002C4F8026B6043B68334206D0FFF726FC401B02283A
:2023E000F7D9032042E0264BDA6A0F218A43E16A0A43DA625968A26A606A024323480140BA
:202400000A435A601968802252040A431A60FFF70BFC04001A4E8025AD0433682B4206D1D7
:20242000FFF702FC001B0228F7D903201EE000201CE000201AE0012B1FD0114B5A68DD6ABC
:2024400080235B021340616A01208B420ED10F232B40E16A8B4209D1F0239B031A40A36AEA
:20246000D21A531E9A41D0B200E0012003B0C0BCB946B046F0BD0120F8E70120F6E7C046CC
:2024800000100240FFFFFFFEFFFFFFEFFFFFC2FF10B5104B5A680C231340082B01D00E4886
:2024A00010BD0E4993021B0FCC5C0A4BD96AD20308D50B4A0F230B40D15C0748FEF724FE62
:2024C0006043EDE76201121B93019B1ADB001B191802E5E70010024000127A007029000838
:2024E00060290008F8B5CE46474680B504000D00002800D182E0434B1A68012313408B4208
:202500000AD240490B68012293432B430B600B681A400120AA426DD123689A070ED55B0788
:2025200005D5394A5168E023DB000B435360364A5368F0218B43A1680B4353602368DB0715
:2025400030D56268012A21D0022A25D02E4B1B689B0755D52C494B680320834313434B6095
:20256000FFF762FB0600284B98460C27274B994643465A683A4063689B009A4212D0FFF74E
:2025800053FB801B4845F3D9032033E01E4B1B689B03DFD401202DE01B4B1B689B01D9D426
:2025A000012027E0174B1A6801231340AB4208D9144B1A6801218A431A601B680120194281
:2025C00018D123685B0706D50F4A536810490B40E1680B435360FFF75BFF0B4B5B680D4989
:2025E0000D4A1B061B0FD35CD84008600320FFF7D9FA0020C0BCB946B046F8BD0120F9E757
:202600000120F7E7002002400010024088130000FFF8FFFFC000002050290008F0B5CE465D
:20262000474680B583B004000368DB033AD5424BDB690025DB000AD43F4BDA6980214905DE
:202640000A43DA61DB690B400193019B01353B4B1B68DB0540D5384B1A6AC0239B00110069
:2026600019401A4215D06368C022920013408B420FD0314B1A6A324911401E6A802040024C
:2026800030431862186A2F4E304018621962D2073AD4294A136A2A490B4061680B431362C8
:2026A000012D44D02368DB0706D5234A136B03218B43A1680B431363236800209B0606D5BF
:2026C0001D4A136B10218B43E1680B43136303B0C0BCB946B046F0BD184A116880235B005F
:2026E0000B431360FFF7A0FA0600144B984680277F0043461B683B42ADD1FFF795FA801BF9
:202700006428F6D90320E2E7FFF78EFA06000A4B984602270C4B994643461B6A1F42B8D164
:20272000FFF782FA801B4845F6D90320CFE7D36906490B40D361B5E70010024000700040AF
:20274000FFFCFFFFFFFFFEFF88130000FFFFFFEFF0B5D6464F464646C0B50B68002B5BD0DE
:2027600000220124A14620E0C3689846270067437B009C46BC446346DE430B697B439A4618
:20278000454663469D432B0055461D43C5604B68022B26D004684B687B43344023430360EA
:2027A00001320B681C00D44036D04E4696401C0034403342F4D04B68013B012BD4D8836858
:2027C000270067437E00F619B3438E687E43334383600F684368BB43CE687E433343436065
:2027E000C2E7FF2C0CD8036A3C007C43A44624016546641BA3434C696C4323430362C9E7BB
:20280000436A240A6443644325012D1BAB434D696C4323434362BDE70020E0BCBA46B1466C
:20282000A846F0BD084A0123904201D018007047064B1969802292030A431A611A69044973
:202840000A401A610023F1E70054004000100240FFFFDFFF30B503680124A34303600268CE
:20286000CB681B028D682B43154D2A40134303604B6803610368234303608368114A13403C
:20288000836082680B698C692343D20AD202134383600B69002B04D0826880231B02134340
:2028A00083600368084A13400A68134303604368044A13404A6913434360002030BDC046EF
:2028C000FFE0FFFFFF7FFFFFFFFFCFFF03008218934200D1704719700133F9E770B50026F1
:2028E0000C4C0D4D641BA410A64209D1002600F023F80A4C0A4D641BA410A64205D170BD35
:20290000B300EB5898470136EEE7B300EB5898470136F2E7802900088029000884290008DA
:2029200080290008002310B59A4200D110BDCC5CC4540133F8E70000F8B5C046F8BC08BC06
:202940009E467047F8B5C046F8BC08BC9E46704700000000000000000102030406070809EE
:202960000102030405060708090A0B0C0D0E0F1002030405060708090A0B0C0D0E0F101038
:20298000E9100008C110000800127A00FFFF010004000000FFFFFFFFFFFFFFFFFFFFFFFFDA
:2029A000FFFFFFFFFFFFFFFFFFFFFFFFFFFFFFFFFFFFFFFFFFFFFFFFFFFFFFFFFFFFFFFF37
:2029C000FFFFFFFFFFFFFFFFFFFFFFFFFFFFFFFFFFFFFFFFFFFFFFFFFFFFFFFFFFFFFFFF17
:2029E000FFFFFFFFFFFFFFFFFFFFFFFFFFFFFFFFFFFFFFFFFFFFFFFFFFFFFFFFFFFFFFFFF7
:202A0000FFFFFFFFFFFFFFFFFFFFFFFFFFFFFFFFFFFFFFFFFFFFFFFFFFFFFFFFFFFFFFFFD6
:203BE000FFFFFFFFFFFFFFFFFFFFFFFFFFFFFFFFFFFFFFFFFFFFFFFFFFFFFFFF766D616B32
:203C0000FFFFFFFFFFFFFFFFFFFFFFFFFFFFFFFFFFFFFFFFFFFFFFFFFFFFFFFFFFFFFFFFC4
:203C2000FFFFFFFFFFFFFFFFFFFFFFFFFFFFFFFFFFFFFFFFFFFFFFFFFFFFFFFFFFFFFFFFA4
:203C4000FFFFFFFFFFFFFFFFFFFFFFFFFFFFFFFFFFFFFFFFFFFFFFFFFFFFFFFFFFFFFFFF84
:203C6000FFFFFFFFFFFFFFFFFFFFFFFFFFFFFFFFFFFFFFFFFFFFFFFFFFFFFFFFFFFFFFFF64
:203C8000FFFFFFFFFFFFFFFFFFFFFFFFFFFFFFFFFFFFFFFFFFFFFFFFFFFFFFFFFFFFFFFF44
:203CA000FFFFFFFFFFFFFFFFFFFFFFFFFFFFFFFFFFFFFFFFFFFFFFFFFFFFFFFFFFFFFFFF24
:203CC000FFFFFFFFFFFFFFFFFFFFFFFFFFFFFFFFFFFFFFFFFFFFFFFFFFFFFFFFFFFFFFFF04
:203CE000FFFFFFFFFFFFFFFFFFFFFFFFFFFFFFFFFFFFFFFFFFFFFFFFFFFFFFFFFFFFFFFFE4
:203D0000FFFFFFFFFFFFFFFFFFFFFFFFFFFFFFFFFFFFFFFFFFFFFFFFFFFFFFFFFFFFFFFFC3
:203D2000FFFFFFFFFFFFFFFFFFFFFFFFFFFFFFFFFFFFFFFFFFFFFFFFFFFFFFFFFFFFFFFFA3
:203D4000FFFFFFFFFFFFFFFFFFFFFFFFFFFFFFFFFFFFFFFFFFFFFFFFFFFFFFFFFFFFFFFF83
:203D6000FFFFFFFFFFFFFFFFFFFFFFFFFFFFFFFFFFFFFFFFFFFFFFFFFFFFFFFFFFFFFFFF63
:203D8000FFFFFFFFFFFFFFFFFFFFFFFFFFFFFFFFFFFFFFFFFFFFFFFFFFFFFFFFFFFFFFFF43
:203DA000FFFFFFFFFFFFFFFFFFFFFFFFFFFFFFFFFFFFFFFFFFFFFFFFFFFFFFFFFFFFFFFF23
:203DC000FFFFFFFFFFFFFFFFFFFFFFFFFFFFFFFFFFFFFFFFFFFFFFFFFFFFFFFFFFFFFFFF03
:203DE000FFFFFFFFFFFFFFFFFFFFFFFFFFFFFFFFFFFFFFFFFFFFFFFFFFFFFFFFFFFFFFFFE3
:203E0000FFFFFFFFFFFFFFFFFFFFFFFFFFFFFFFFFFFFFFFFFFFFFFFFFFFFFFFFFFFFFFFFC2
:203E2000FFFFFFFFFFFFFFFFFFFFFFFFFFFFFFFFFFFFFFFFFFFFFFFFFFFFFFFFFFFFFFFFA2
:203E4000FFFFFFFFFFFFFFFFFFFFFFFFFFFFFFFFFFFFFFFFFFFFFFFFFFFFFFFFFFFFFFFF82
:203E6000FFFFFFFFFFFFFFFFFFFFFFFFFFFFFFFFFFFFFFFFFFFFFFFFFFFFFFFFFFFFFFFF62
:203E8000FFFFFFFFFFFFFFFFFFFFFFFFFFFFFFFFFFFFFFFFFFFFFFFFFFFFFFFFFFFFFFFF42
:203EA000FFFFFFFFFFFFFFFFFFFFFFFFFFFFFFFFFFFFFFFFFFFFFFFFFFFFFFFFFFFFFFFF22
:203EC000FFFFFFFFFFFFFFFFFFFFFFFFFFFFFFFFFFFFFFFFFFFFFFFFFFFFFFFFFFFFFFFF02
:203EE000FFFFFFFFFFFFFFFFFFFFFFFFFFFFFFFFFFFFFFFFFFFFFFFFFFFFFFFFFFFFFFFFE2
:203F0000FFFFFFFFFFFFFFFFFFFFFFFFFFFFFFFFFFFFFFFFFFFFFFFFFFFFFFFFFFFFFFFFC1
:203F2000FFFFFFFFFFFFFFFFFFFFFFFFFFFFFFFFFFFFFFFFFFFFFFFFFFFFFFFFFFFFFFFFA1
:203F4000FFFFFFFFFFFFFFFFFFFFFFFFFFFFFFFFFFFFFFFFFFFFFFFFFFFFFFFFFFFFFFFF81
:203F6000FFFFFFFFFFFFFFFFFFFFFFFFFFFFFFFFFFFFFFFFFFFFFFFFFFFFFFFFFFFFFFFF61
:203F8000FFFFFFFFFFFFFFFFFFFFFFFFFFFFFFFFFFFFFFFFFFFFFFFFFFFFFFFFFFFFFFFF41
:203FA000FFFFFFFFFFFFFFFFFFFFFFFFFFFFFFFFFFFFFFFFFFFFFFFFFFFFFFFFFFFFFFFF21
:203FC000FFFFFFFFFFFFFFFFFFFFFFFFFFFFFFFFFFFFFFFFFFFFFFFFFFFFFFFFFFFFFFFF01
:203FE000FFFFFFFFFFFFFFFFFFFFFFFFFFFFFFFFFFFFFFFFFFFFFFFFFFFFFFFFFFFFFFFFE1
:00000001FF
